{
  "contractName": "AdditionContract",
  "abi": [
    {
      "constant": true,
      "inputs": [],
      "name": "state",
      "outputs": [
        {
          "name": "",
          "type": "uint256"
        }
      ],
      "payable": false,
      "stateMutability": "view",
      "type": "function"
    },
    {
      "constant": false,
      "inputs": [
        {
          "name": "value1",
          "type": "uint256"
        },
        {
          "name": "value2",
          "type": "uint256"
        }
      ],
      "name": "add",
      "outputs": [],
      "payable": false,
      "stateMutability": "nonpayable",
      "type": "function"
    },
    {
      "constant": true,
      "inputs": [],
      "name": "getState",
      "outputs": [
        {
          "name": "",
          "type": "uint256"
        }
      ],
      "payable": false,
      "stateMutability": "view",
      "type": "function"
    }
  ],
  "bytecode": "0x60806040526000805534801561001457600080fd5b50610124806100246000396000f3006080604052600436106053576000357c0100000000000000000000000000000000000000000000000000000000900463ffffffff1680631865c57d146058578063771602f7146080578063c19d93fb1460b4575b600080fd5b348015606357600080fd5b50606a60dc565b6040518082815260200191505060405180910390f35b348015608b57600080fd5b5060b2600480360381019080803590602001909291908035906020019092919050505060e5565b005b34801560bf57600080fd5b5060c660f2565b6040518082815260200191505060405180910390f35b60008054905090565b8082016000819055505050565b600054815600a165627a7a7230582016fe9493f1a9745e1657472d439fe2d2e4ad9038fb838868f6aebb99a81d1c3c0029",
  "source": "pragma solidity ^0.4.18;\n\ncontract AdditionContract {\n  uint public state = 0;\n\n  function add(uint value1, uint value2) public {\n    state = value1 + value2;\n  }\n\n  function getState() public constant returns (uint) {\n      return state;\n  }\n}\n",
  "sourcePath": "/home/abdullah/devnet/workspace/contracts/AdditionContract.sol",
  "compiler": {
    "name": "solc",
    "version": "0.4.24+commit.e67f0147.Emscripten.clang"
  },
  "schemaVersion": "2.0.1",
  "updatedAt": "2018-11-08T08:39:39.938Z"
}